:020000006A2F65
:10000800F000030EF1000A08F200031383120B1D1F
:1000180013280B1103138312B230810020147208C5
:0C0028008A00710E8300F00E700E0900BB
:100ED400DF2773277D1877277E187F278627A1278A
:100EE4006B2FB827C527D2270800FD0178187B2F60
:100EF4007D2FF801080078140800FE01F90A79082A
:100F0400043C0319F9018B277F1C0800861506167B
:100F1400080079080319952FFF3E0319982FFF3E07
:100F240003199B2F9E2F0530F70008000A30F700A5
:100F340008001930F70008003230F7000800201CC0
:100F44000800201003138312F30B08007708F30042
:100F5400031383120608781CB02FB42FEF39083A14
:100F640086000800F739103A86000800031383123C
:100F7400061BBD2FBF2FFB0108007B1808007B1444
:100F84000130FD00080003138312861BCA2FCC2FE7
:100F9400FA0108007A1808007A140130FE000800EB
:100FA40003138312851BD72FD92FFC0108007C184B
:100FB40008007C140130FF06080003138316783000
:100FC4008F00031383169B010313831686110612E5
:100FD40003138312861106120313831687308100CC
:100FE40003138312B2308100031383120B118B1687
:0C0FF4008B17031383123230F300080047
:04400E00703FFC3FC4
:00000001FF
